{
  "_format": "hh-sol-artifact-1",
  "contractName": "CatToken",
  "sourceName": "contracts/CatToken.sol",
  "abi": [
    {
      "inputs": [],
      "stateMutability": "nonpayable",
      "type": "constructor"
    },
    {
      "anonymous": false,
      "inputs": [
        {
          "indexed": true,
          "internalType": "address",
          "name": "owner",
          "type": "address"
        },
        {
          "indexed": true,
          "internalType": "address",
          "name": "spender",
          "type": "address"
        },
        {
          "indexed": false,
          "internalType": "uint256",
          "name": "value",
          "type": "uint256"
        }
      ],
      "name": "Approval",
      "type": "event"
    },
    {
      "anonymous": false,
      "inputs": [
        {
          "indexed": true,
          "internalType": "address",
          "name": "from",
          "type": "address"
        },
        {
          "indexed": true,
          "internalType": "address",
          "name": "to",
          "type": "address"
        },
        {
          "indexed": false,
          "internalType": "uint256",
          "name": "value",
          "type": "uint256"
        }
      ],
      "name": "Transfer",
      "type": "event"
    },
    {
      "inputs": [
        {
          "internalType": "address",
          "name": "owner",
          "type": "address"
        },
        {
          "internalType": "address",
          "name": "spender",
          "type": "address"
        }
      ],
      "name": "allowance",
      "outputs": [
        {
          "internalType": "uint256",
          "name": "",
          "type": "uint256"
        }
      ],
      "stateMutability": "view",
      "type": "function"
    },
    {
      "inputs": [
        {
          "internalType": "address",
          "name": "spender",
          "type": "address"
        },
        {
          "internalType": "uint256",
          "name": "amount",
          "type": "uint256"
        }
      ],
      "name": "approve",
      "outputs": [
        {
          "internalType": "bool",
          "name": "",
          "type": "bool"
        }
      ],
      "stateMutability": "nonpayable",
      "type": "function"
    },
    {
      "inputs": [
        {
          "internalType": "address",
          "name": "account",
          "type": "address"
        }
      ],
      "name": "balanceOf",
      "outputs": [
        {
          "internalType": "uint256",
          "name": "",
          "type": "uint256"
        }
      ],
      "stateMutability": "view",
      "type": "function"
    },
    {
      "inputs": [
        {
          "internalType": "address",
          "name": "to",
          "type": "address"
        }
      ],
      "name": "burnFT",
      "outputs": [],
      "stateMutability": "nonpayable",
      "type": "function"
    },
    {
      "inputs": [],
      "name": "decimals",
      "outputs": [
        {
          "internalType": "uint8",
          "name": "",
          "type": "uint8"
        }
      ],
      "stateMutability": "view",
      "type": "function"
    },
    {
      "inputs": [
        {
          "internalType": "address",
          "name": "spender",
          "type": "address"
        },
        {
          "internalType": "uint256",
          "name": "subtractedValue",
          "type": "uint256"
        }
      ],
      "name": "decreaseAllowance",
      "outputs": [
        {
          "internalType": "bool",
          "name": "",
          "type": "bool"
        }
      ],
      "stateMutability": "nonpayable",
      "type": "function"
    },
    {
      "inputs": [
        {
          "internalType": "address",
          "name": "spender",
          "type": "address"
        },
        {
          "internalType": "uint256",
          "name": "addedValue",
          "type": "uint256"
        }
      ],
      "name": "increaseAllowance",
      "outputs": [
        {
          "internalType": "bool",
          "name": "",
          "type": "bool"
        }
      ],
      "stateMutability": "nonpayable",
      "type": "function"
    },
    {
      "inputs": [
        {
          "internalType": "address",
          "name": "to",
          "type": "address"
        }
      ],
      "name": "mintFT",
      "outputs": [],
      "stateMutability": "payable",
      "type": "function"
    },
    {
      "inputs": [],
      "name": "name",
      "outputs": [
        {
          "internalType": "string",
          "name": "",
          "type": "string"
        }
      ],
      "stateMutability": "view",
      "type": "function"
    },
    {
      "inputs": [],
      "name": "symbol",
      "outputs": [
        {
          "internalType": "string",
          "name": "",
          "type": "string"
        }
      ],
      "stateMutability": "view",
      "type": "function"
    },
    {
      "inputs": [],
      "name": "totalSupply",
      "outputs": [
        {
          "internalType": "uint256",
          "name": "",
          "type": "uint256"
        }
      ],
      "stateMutability": "view",
      "type": "function"
    },
    {
      "inputs": [
        {
          "internalType": "address",
          "name": "to",
          "type": "address"
        },
        {
          "internalType": "uint256",
          "name": "amount",
          "type": "uint256"
        }
      ],
      "name": "transfer",
      "outputs": [
        {
          "internalType": "bool",
          "name": "",
          "type": "bool"
        }
      ],
      "stateMutability": "nonpayable",
      "type": "function"
    },
    {
      "inputs": [
        {
          "internalType": "address",
          "name": "from",
          "type": "address"
        },
        {
          "internalType": "address",
          "name": "to",
          "type": "address"
        },
        {
          "internalType": "uint256",
          "name": "amount",
          "type": "uint256"
        }
      ],
      "name": "transferFT",
      "outputs": [],
      "stateMutability": "payable",
      "type": "function"
    },
    {
      "inputs": [
        {
          "internalType": "address",
          "name": "from",
          "type": "address"
        },
        {
          "internalType": "address",
          "name": "to",
          "type": "address"
        },
        {
          "internalType": "uint256",
          "name": "amount",
          "type": "uint256"
        }
      ],
      "name": "transferFrom",
      "outputs": [
        {
          "internalType": "bool",
          "name": "",
          "type": "bool"
        }
      ],
      "stateMutability": "nonpayable",
      "type": "function"
    }
  ],
  "bytecode": "0x60806040523480156200001157600080fd5b506040518060400160405280600881526020017f436174546f6b656e0000000000000000000000000000000000000000000000008152506040518060400160405280600381526020017f434154000000000000000000000000000000000000000000000000000000000081525081600390805190602001906200009692919062000255565b508060049080519060200190620000af92919062000255565b505050620000cc33670de0b6b3a7640000620000d260201b60201c565b620004b1565b600073ffffffffffffffffffffffffffffffffffffffff168273ffffffffffffffffffffffffffffffffffffffff16141562000145576040517f08c379a00000000000000000000000000000000000000000000000000000000081526004016200013c906200033d565b60405180910390fd5b62000159600083836200024b60201b60201c565b80600260008282546200016d91906200038d565b92505081905550806000808473ffffffffffffffffffffffffffffffffffffffff1673ffffffffffffffffffffffffffffffffffffffff1681526020019081526020016000206000828254620001c491906200038d565b925050819055508173ffffffffffffffffffffffffffffffffffffffff16600073ffffffffffffffffffffffffffffffffffffffff167fddf252ad1be2c89b69c2b068fc378daa952ba7f163c4a11628f55a4df523b3ef836040516200022b91906200035f565b60405180910390a362000247600083836200025060201b60201c565b5050565b505050565b505050565b8280546200026390620003f4565b90600052602060002090601f016020900481019282620002875760008555620002d3565b82601f10620002a257805160ff1916838001178555620002d3565b82800160010185558215620002d3579182015b82811115620002d2578251825591602001919060010190620002b5565b5b509050620002e29190620002e6565b5090565b5b8082111562000301576000816000905550600101620002e7565b5090565b600062000314601f836200037c565b9150620003218262000488565b602082019050919050565b6200033781620003ea565b82525050565b60006020820190508181036000830152620003588162000305565b9050919050565b60006020820190506200037660008301846200032c565b92915050565b600082825260208201905092915050565b60006200039a82620003ea565b9150620003a783620003ea565b9250827fffffffffffffffffffffffffffffffffffffffffffffffffffffffffffffffff03821115620003df57620003de6200042a565b5b828201905092915050565b6000819050919050565b600060028204905060018216806200040d57607f821691505b6020821081141562000424576200042362000459565b5b50919050565b7f4e487b7100000000000000000000000000000000000000000000000000000000600052601160045260246000fd5b7f4e487b7100000000000000000000000000000000000000000000000000000000600052602260045260246000fd5b7f45524332303a206d696e7420746f20746865207a65726f206164647265737300600082015250565b6118aa80620004c16000396000f3fe6080604052600436106100dd5760003560e01c806370a082311161007f578063a457c2d711610059578063a457c2d7146102ba578063a9059cbb146102f7578063dd62ed3e14610334578063e8bee6e214610371576100dd565b806370a08231146102365780638e8dc6bc1461027357806395d89b411461028f576100dd565b806323b872dd116100bb57806323b872dd14610175578063313ce567146101b257806339509351146101dd578063420ced6f1461021a576100dd565b806306fdde03146100e2578063095ea7b31461010d57806318160ddd1461014a575b600080fd5b3480156100ee57600080fd5b506100f761039a565b6040516101049190611215565b60405180910390f35b34801561011957600080fd5b50610134600480360381019061012f9190610ffa565b61042c565b60405161014191906111fa565b60405180910390f35b34801561015657600080fd5b5061015f61044f565b60405161016c9190611377565b60405180910390f35b34801561018157600080fd5b5061019c60048036038101906101979190610fab565b610459565b6040516101a991906111fa565b60405180910390f35b3480156101be57600080fd5b506101c7610488565b6040516101d49190611392565b60405180910390f35b3480156101e957600080fd5b5061020460048036038101906101ff9190610ffa565b610491565b60405161021191906111fa565b60405180910390f35b610234600480360381019061022f9190610fab565b6104c8565b005b34801561024257600080fd5b5061025d60048036038101906102589190610f46565b6104d8565b60405161026a9190611377565b60405180910390f35b61028d60048036038101906102889190610f46565b610520565b005b34801561029b57600080fd5b506102a4610534565b6040516102b19190611215565b60405180910390f35b3480156102c657600080fd5b506102e160048036038101906102dc9190610ffa565b6105c6565b6040516102ee91906111fa565b60405180910390f35b34801561030357600080fd5b5061031e60048036038101906103199190610ffa565b61063d565b60405161032b91906111fa565b60405180910390f35b34801561034057600080fd5b5061035b60048036038101906103569190610f6f565b610660565b6040516103689190611377565b60405180910390f35b34801561037d57600080fd5b5061039860048036038101906103939190610f46565b6106e7565b005b6060600380546103a9906114db565b80601f01602080910402602001604051908101604052809291908181526020018280546103d5906114db565b80156104225780601f106103f757610100808354040283529160200191610422565b820191906000526020600020905b81548152906001019060200180831161040557829003601f168201915b5050505050905090565b6000806104376106fb565b9050610444818585610703565b600191505092915050565b6000600254905090565b6000806104646106fb565b90506104718582856108ce565b61047c85858561095a565b60019150509392505050565b60006012905090565b60008061049c6106fb565b90506104bd8185856104ae8589610660565b6104b891906113c9565b610703565b600191505092915050565b6104d383838361095a565b505050565b60008060008373ffffffffffffffffffffffffffffffffffffffff1673ffffffffffffffffffffffffffffffffffffffff168152602001908152602001600020549050919050565b61053181662386f26fc10000610bdb565b50565b606060048054610543906114db565b80601f016020809104026020016040519081016040528092919081815260200182805461056f906114db565b80156105bc5780601f10610591576101008083540402835291602001916105bc565b820191906000526020600020905b81548152906001019060200180831161059f57829003601f168201915b5050505050905090565b6000806105d16106fb565b905060006105df8286610660565b905083811015610624576040517f08c379a000000000000000000000000000000000000000000000000000000000815260040161061b90611337565b60405180910390fd5b6106318286868403610703565b60019250505092915050565b6000806106486106fb565b905061065581858561095a565b600191505092915050565b6000600160008473ffffffffffffffffffffffffffffffffffffffff1673ffffffffffffffffffffffffffffffffffffffff16815260200190815260200160002060008373ffffffffffffffffffffffffffffffffffffffff1673ffffffffffffffffffffffffffffffffffffffff16815260200190815260200160002054905092915050565b6106f881662386f26fc10000610d3b565b50565b600033905090565b600073ffffffffffffffffffffffffffffffffffffffff168373ffffffffffffffffffffffffffffffffffffffff161415610773576040517f08c379a000000000000000000000000000000000000000000000000000000000815260040161076a90611317565b60405180910390fd5b600073ffffffffffffffffffffffffffffffffffffffff168273ffffffffffffffffffffffffffffffffffffffff1614156107e3576040517f08c379a00000000000000000000000000000000000000000000000000000000081526004016107da90611277565b60405180910390fd5b80600160008573ffffffffffffffffffffffffffffffffffffffff1673ffffffffffffffffffffffffffffffffffffffff16815260200190815260200160002060008473ffffffffffffffffffffffffffffffffffffffff1673ffffffffffffffffffffffffffffffffffffffff168152602001908152602001600020819055508173ffffffffffffffffffffffffffffffffffffffff168373ffffffffffffffffffffffffffffffffffffffff167f8c5be1e5ebec7d5bd14f71427d1e84f3dd0314c0f7b2291e5b200ac8c7c3b925836040516108c19190611377565b60405180910390a3505050565b60006108da8484610660565b90507fffffffffffffffffffffffffffffffffffffffffffffffffffffffffffffffff81146109545781811015610946576040517f08c379a000000000000000000000000000000000000000000000000000000000815260040161093d90611297565b60405180910390fd5b6109538484848403610703565b5b50505050565b600073ffffffffffffffffffffffffffffffffffffffff168373ffffffffffffffffffffffffffffffffffffffff1614156109ca576040517f08c379a00000000000000000000000000000000000000000000000000000000081526004016109c1906112f7565b60405180910390fd5b600073ffffffffffffffffffffffffffffffffffffffff168273ffffffffffffffffffffffffffffffffffffffff161415610a3a576040517f08c379a0000000000000000000000000000000000000000000000000000000008152600401610a3190611237565b60405180910390fd5b610a45838383610f12565b60008060008573ffffffffffffffffffffffffffffffffffffffff1673ffffffffffffffffffffffffffffffffffffffff16815260200190815260200160002054905081811015610acb576040517f08c379a0000000000000000000000000000000000000000000000000000000008152600401610ac2906112b7565b60405180910390fd5b8181036000808673ffffffffffffffffffffffffffffffffffffffff1673ffffffffffffffffffffffffffffffffffffffff16815260200190815260200160002081905550816000808573ffffffffffffffffffffffffffffffffffffffff1673ffffffffffffffffffffffffffffffffffffffff1681526020019081526020016000206000828254610b5e91906113c9565b925050819055508273ffffffffffffffffffffffffffffffffffffffff168473ffffffffffffffffffffffffffffffffffffffff167fddf252ad1be2c89b69c2b068fc378daa952ba7f163c4a11628f55a4df523b3ef84604051610bc29190611377565b60405180910390a3610bd5848484610f17565b50505050565b600073ffffffffffffffffffffffffffffffffffffffff168273ffffffffffffffffffffffffffffffffffffffff161415610c4b576040517f08c379a0000000000000000000000000000000000000000000000000000000008152600401610c4290611357565b60405180910390fd5b610c5760008383610f12565b8060026000828254610c6991906113c9565b92505081905550806000808473ffffffffffffffffffffffffffffffffffffffff1673ffffffffffffffffffffffffffffffffffffffff1681526020019081526020016000206000828254610cbe91906113c9565b925050819055508173ffffffffffffffffffffffffffffffffffffffff16600073ffffffffffffffffffffffffffffffffffffffff167fddf252ad1be2c89b69c2b068fc378daa952ba7f163c4a11628f55a4df523b3ef83604051610d239190611377565b60405180910390a3610d3760008383610f17565b5050565b600073ffffffffffffffffffffffffffffffffffffffff168273ffffffffffffffffffffffffffffffffffffffff161415610dab576040517f08c379a0000000000000000000000000000000000000000000000000000000008152600401610da2906112d7565b60405180910390fd5b610db782600083610f12565b60008060008473ffffffffffffffffffffffffffffffffffffffff1673ffffffffffffffffffffffffffffffffffffffff16815260200190815260200160002054905081811015610e3d576040517f08c379a0000000000000000000000000000000000000000000000000000000008152600401610e3490611257565b60405180910390fd5b8181036000808573ffffffffffffffffffffffffffffffffffffffff1673ffffffffffffffffffffffffffffffffffffffff168152602001908152602001600020819055508160026000828254610e94919061141f565b92505081905550600073ffffffffffffffffffffffffffffffffffffffff168373ffffffffffffffffffffffffffffffffffffffff167fddf252ad1be2c89b69c2b068fc378daa952ba7f163c4a11628f55a4df523b3ef84604051610ef99190611377565b60405180910390a3610f0d83600084610f17565b505050565b505050565b505050565b600081359050610f2b81611846565b92915050565b600081359050610f408161185d565b92915050565b600060208284031215610f5857600080fd5b6000610f6684828501610f1c565b91505092915050565b60008060408385031215610f8257600080fd5b6000610f9085828601610f1c565b9250506020610fa185828601610f1c565b9150509250929050565b600080600060608486031215610fc057600080fd5b6000610fce86828701610f1c565b9350506020610fdf86828701610f1c565b9250506040610ff086828701610f31565b9150509250925092565b6000806040838503121561100d57600080fd5b600061101b85828601610f1c565b925050602061102c85828601610f31565b9150509250929050565b61103f81611465565b82525050565b6000611050826113ad565b61105a81856113b8565b935061106a8185602086016114a8565b6110738161156b565b840191505092915050565b600061108b6023836113b8565b91506110968261157c565b604082019050919050565b60006110ae6022836113b8565b91506110b9826115cb565b604082019050919050565b60006110d16022836113b8565b91506110dc8261161a565b604082019050919050565b60006110f4601d836113b8565b91506110ff82611669565b602082019050919050565b60006111176026836113b8565b915061112282611692565b604082019050919050565b600061113a6021836113b8565b9150611145826116e1565b604082019050919050565b600061115d6025836113b8565b915061116882611730565b604082019050919050565b60006111806024836113b8565b915061118b8261177f565b604082019050919050565b60006111a36025836113b8565b91506111ae826117ce565b604082019050919050565b60006111c6601f836113b8565b91506111d18261181d565b602082019050919050565b6111e581611491565b82525050565b6111f48161149b565b82525050565b600060208201905061120f6000830184611036565b92915050565b6000602082019050818103600083015261122f8184611045565b905092915050565b600060208201905081810360008301526112508161107e565b9050919050565b60006020820190508181036000830152611270816110a1565b9050919050565b60006020820190508181036000830152611290816110c4565b9050919050565b600060208201905081810360008301526112b0816110e7565b9050919050565b600060208201905081810360008301526112d08161110a565b9050919050565b600060208201905081810360008301526112f08161112d565b9050919050565b6000602082019050818103600083015261131081611150565b9050919050565b6000602082019050818103600083015261133081611173565b9050919050565b6000602082019050818103600083015261135081611196565b9050919050565b60006020820190508181036000830152611370816111b9565b9050919050565b600060208201905061138c60008301846111dc565b92915050565b60006020820190506113a760008301846111eb565b92915050565b600081519050919050565b600082825260208201905092915050565b60006113d482611491565b91506113df83611491565b9250827fffffffffffffffffffffffffffffffffffffffffffffffffffffffffffffffff038211156114145761141361150d565b5b828201905092915050565b600061142a82611491565b915061143583611491565b9250828210156114485761144761150d565b5b828203905092915050565b600061145e82611471565b9050919050565b60008115159050919050565b600073ffffffffffffffffffffffffffffffffffffffff82169050919050565b6000819050919050565b600060ff82169050919050565b60005b838110156114c65780820151818401526020810190506114ab565b838111156114d5576000848401525b50505050565b600060028204905060018216806114f357607f821691505b602082108114156115075761150661153c565b5b50919050565b7f4e487b7100000000000000000000000000000000000000000000000000000000600052601160045260246000fd5b7f4e487b7100000000000000000000000000000000000000000000000000000000600052602260045260246000fd5b6000601f19601f8301169050919050565b7f45524332303a207472616e7366657220746f20746865207a65726f206164647260008201527f6573730000000000000000000000000000000000000000000000000000000000602082015250565b7f45524332303a206275726e20616d6f756e7420657863656564732062616c616e60008201527f6365000000000000000000000000000000000000000000000000000000000000602082015250565b7f45524332303a20617070726f766520746f20746865207a65726f20616464726560008201527f7373000000000000000000000000000000000000000000000000000000000000602082015250565b7f45524332303a20696e73756666696369656e7420616c6c6f77616e6365000000600082015250565b7f45524332303a207472616e7366657220616d6f756e742065786365656473206260008201527f616c616e63650000000000000000000000000000000000000000000000000000602082015250565b7f45524332303a206275726e2066726f6d20746865207a65726f2061646472657360008201527f7300000000000000000000000000000000000000000000000000000000000000602082015250565b7f45524332303a207472616e736665722066726f6d20746865207a65726f20616460008201527f6472657373000000000000000000000000000000000000000000000000000000602082015250565b7f45524332303a20617070726f76652066726f6d20746865207a65726f2061646460008201527f7265737300000000000000000000000000000000000000000000000000000000602082015250565b7f45524332303a2064656372656173656420616c6c6f77616e63652062656c6f7760008201527f207a65726f000000000000000000000000000000000000000000000000000000602082015250565b7f45524332303a206d696e7420746f20746865207a65726f206164647265737300600082015250565b61184f81611453565b811461185a57600080fd5b50565b61186681611491565b811461187157600080fd5b5056fea26469706673582212200b3f8d3153baeda57ad371702c94a90556fb08541917d694682864058eec35e264736f6c63430008040033",
  "linkReferences": {},
  "deployedLinkReferences": {}
}